{
  "contractName": "Patients",
  "abi": [
    {
      "constant": false,
      "inputs": [
        {
          "name": "entry",
          "type": "string"
        }
      ],
      "name": "AddRecord",
      "outputs": [],
      "payable": false,
      "stateMutability": "nonpayable",
      "type": "function"
    },
    {
      "constant": false,
      "inputs": [],
      "name": "reset",
      "outputs": [],
      "payable": false,
      "stateMutability": "nonpayable",
      "type": "function"
    },
    {
      "constant": false,
      "inputs": [],
      "name": "TestArray",
      "outputs": [],
      "payable": false,
      "stateMutability": "nonpayable",
      "type": "function"
    },
    {
      "constant": true,
      "inputs": [
        {
          "name": "record_number",
          "type": "uint256"
        }
      ],
      "name": "getRecords",
      "outputs": [
        {
          "name": "",
          "type": "string"
        }
      ],
      "payable": false,
      "stateMutability": "view",
      "type": "function"
    },
    {
      "constant": true,
      "inputs": [],
      "name": "getLength",
      "outputs": [
        {
          "name": "",
          "type": "uint256"
        }
      ],
      "payable": false,
      "stateMutability": "view",
      "type": "function"
    }
  ],
  "bytecode": "0x608060405234801561001057600080fd5b50610644806100206000396000f30060806040526004361061006d576000357c0100000000000000000000000000000000000000000000000000000000900463ffffffff1680634d8f11fa1461007257806398f903db14610089578063be1c766b1461012f578063c98974021461015a578063d826f88f146101c3575b600080fd5b34801561007e57600080fd5b506100876101da565b005b34801561009557600080fd5b506100b46004803603810190808035906020019092919050505061039c565b6040518080602001828103825283818151815260200191508051906020019080838360005b838110156100f45780820151818401526020810190506100d9565b50505050905090810190601f1680156101215780820380516001836020036101000a031916815260200191505b509250505060405180910390f35b34801561013b57600080fd5b5061014461045a565b6040518082815260200191505060405180910390f35b34801561016657600080fd5b506101c1600480360381019080803590602001908201803590602001908080601f0160208091040260200160405190810160405280939291908181526020018383808284378201915050505050509192919290505050610466565b005b3480156101cf57600080fd5b506101d86104a8565b005b60008060018154018082558091505090600182039060005260206000200160006040805190810160405280600281526020017f7431000000000000000000000000000000000000000000000000000000000000815250909190915090805190602001906102489291906104d3565b505060008060018154018082558091505090600182039060005260206000200160006040805190810160405280600281526020017f7432000000000000000000000000000000000000000000000000000000000000815250909190915090805190602001906102b89291906104d3565b505060008060018154018082558091505090600182039060005260206000200160006040805190810160405280600281526020017f7433000000000000000000000000000000000000000000000000000000000000815250909190915090805190602001906103289291906104d3565b505060008060018154018082558091505090600182039060005260206000200160006040805190810160405280600281526020017f7434000000000000000000000000000000000000000000000000000000000000815250909190915090805190602001906103989291906104d3565b5050565b60606000600183038154811015156103b057fe5b906000526020600020018054600181600116156101000203166002900480601f01602080910402602001604051908101604052809291908181526020018280546001816001161561010002031660029004801561044e5780601f106104235761010080835404028352916020019161044e565b820191906000526020600020905b81548152906001019060200180831161043157829003601f168201915b50505050509050919050565b60008080549050905090565b60008190806001815401808255809150509060018203906000526020600020016000909192909190915090805190602001906104a39291906104d3565b505050565b5b6000808054905011156104d15760008054809190600190036104cb9190610553565b506104a9565b565b828054600181600116156101000203166002900490600052602060002090601f016020900481019282601f1061051457805160ff1916838001178555610542565b82800160010185558215610542579182015b82811115610541578251825591602001919060010190610526565b5b50905061054f919061057f565b5090565b81548183558181111561057a5781836000526020600020918201910161057991906105a4565b5b505050565b6105a191905b8082111561059d576000816000905550600101610585565b5090565b90565b6105cd91905b808211156105c957600081816105c091906105d0565b506001016105aa565b5090565b90565b50805460018160011615610100020316600290046000825580601f106105f65750610615565b601f016020900490600052602060002090810190610614919061057f565b5b505600a165627a7a72305820b8abfd7f99cb3f143a09ca26ec56426e62db1713678fbfd3b6c6acc5c296e72d0029",
  "source": "pragma solidity ^0.4.0;\r\n\r\ncontract Patients{\r\n    \r\n    // string [] patient;\r\n    string[] records;\r\n    \r\n    function AddRecord(string entry) public{\r\n        records.push(entry);\r\n    }\r\n    \r\n    function reset() public{\r\n        while (records.length>0){\r\n            records.length--;\r\n        }\r\n    }\r\n    \r\n    function TestArray() public{\r\n        records.push(\"t1\");\r\n        records.push(\"t2\");\r\n        records.push(\"t3\");\r\n        records.push(\"t4\");\r\n\r\n    }\r\n    \r\n    // function getRecords() returns(string){\r\n        \r\n    //     //return true;\r\n    //     string all_records =\"\"\r\n    //     for (uint i=0; i<records.length; i++) {\r\n    //         all_records = all_records & records[i] & \"[END]\";\r\n    //     }\r\n    //     return all_records;\r\n    // }\r\n    \r\n    function getRecords(uint record_number) public constant returns(string){\r\n        return records[record_number-1];\r\n        \r\n    }\r\n    \r\n    function getLength() public constant returns (uint){\r\n        return records.length;\r\n        //return records[j];\r\n    }\r\n}    ",
  "sourcePath": "C:\\Users\\Kevin\\Documents\\MIT\\MIT Classes\\Fall 18\\1.125 - Arch Eng Systems\\Pet-Shop-Modified-David2\\pet-shop-tutorial-HCversion\\contracts\\Patients.sol",
  "compiler": {
    "name": "solc",
    "version": "0.4.24+commit.e67f0147.Emscripten.clang"
  },
  "schemaVersion": "2.0.1",
  "updatedAt": "2018-12-06T20:25:43.733Z"
}